{
  "contractName": "CastYourVote",
  "abi": [
    {
      "constant": false,
      "inputs": [
        {
          "name": "candidateName",
          "type": "string"
        }
      ],
      "name": "addCandidates",
      "outputs": [],
      "payable": false,
      "stateMutability": "nonpayable",
      "type": "function"
    },
    {
      "constant": true,
      "inputs": [
        {
          "name": "candidateName",
          "type": "string"
        }
      ],
      "name": "isCandidateExist",
      "outputs": [
        {
          "name": "isexist",
          "type": "bool"
        }
      ],
      "payable": false,
      "stateMutability": "view",
      "type": "function"
    },
    {
      "constant": false,
      "inputs": [
        {
          "name": "candidateName",
          "type": "string"
        }
      ],
      "name": "VoteFor",
      "outputs": [],
      "payable": false,
      "stateMutability": "nonpayable",
      "type": "function"
    },
    {
      "constant": true,
      "inputs": [
        {
          "name": "candidateName",
          "type": "string"
        }
      ],
      "name": "totalVotesReceived",
      "outputs": [
        {
          "name": "votes",
          "type": "uint8"
        }
      ],
      "payable": false,
      "stateMutability": "view",
      "type": "function"
    },
    {
      "constant": false,
      "inputs": [],
      "name": "resetVotes",
      "outputs": [],
      "payable": false,
      "stateMutability": "nonpayable",
      "type": "function"
    },
    {
      "inputs": [
        {
          "name": "candidateName",
          "type": "string"
        }
      ],
      "payable": false,
      "stateMutability": "nonpayable",
      "type": "constructor"
    },
    {
      "anonymous": false,
      "inputs": [
        {
          "indexed": false,
          "name": "comment",
          "type": "string"
        },
        {
          "indexed": false,
          "name": "variable",
          "type": "string"
        }
      ],
      "name": "log",
      "type": "event"
    }
  ],
  "bytecode": "0x6060604052341561000f57600080fd5b60405162000a5338038062000a538339810160405280805182019190505060008054806001018281610041919061017a565b9160005260206000209001600083909190915090805190602001906100679291906101a6565b50507f4b5c4277d556d03fbf5ee534fba41dc13982b44f2fa82f1d48fdd8b5b5b692ac60008081548110151561009957fe5b90600052602060002090016040518080602001806020018381038352600f8152602001807f63616e646964617465204c6973742000000000000000000000000000000000008152506020018381038252848181546001816001161561010002031660029004815260200191508054600181600116156101000203166002900480156101655780601f1061013a57610100808354040283529160200191610165565b820191906000526020600020905b81548152906001019060200180831161014857829003601f168201915b5050935050505060405180910390a1506102bf565b8154818355818115116101a1578183600052602060002091820191016101a09190610226565b5b505050565b828054600181600116156101000203166002900490600052602060002090601f016020900481019282601f106101e757805160ff1916838001178555610215565b82800160010185558215610215579182015b828111156102145782518255916020019190600101906101f9565b5b5090506102229190610252565b5090565b61024f91905b8082111561024b57600081816102429190610277565b5060010161022c565b5090565b90565b61027491905b80821115610270576000816000905550600101610258565b5090565b90565b50805460018160011615610100020316600290046000825580601f1061029d57506102bc565b601f0160209004906000526020600020908101906102bb9190610252565b5b50565b61078480620002cf6000396000f30060606040526004361061006d576000357c0100000000000000000000000000000000000000000000000000000000900463ffffffff16806362604e96146100725780637e797dee146100cf578063805f96dd14610144578063908f6bab146101a1578063b9830ff114610218575b600080fd5b341561007d57600080fd5b6100cd600480803590602001908201803590602001908080601f0160208091040260200160405190810160405280939291908181526020018383808284378201915050505050509190505061022d565b005b34156100da57600080fd5b61012a600480803590602001908201803590602001908080601f0160208091040260200160405190810160405280939291908181526020018383808284378201915050505050509190505061026c565b604051808215151515815260200191505060405180910390f35b341561014f57600080fd5b61019f600480803590602001908201803590602001908080601f0160208091040260200160405190810160405280939291908181526020018383808284378201915050505050509190505061039b565b005b34156101ac57600080fd5b6101fc600480803590602001908201803590602001908080601f016020809104026020016040519081016040528093929190818152602001838380828437820191505050505050919050506104b0565b604051808260ff1660ff16815260200191505060405180910390f35b341561022357600080fd5b61022b610546565b005b600080548060010182816102419190610613565b91600052602060002090016000839091909150908051906020019061026792919061063f565b505050565b600080600090505b6000805490508160ff1610156103905760008160ff1681548110151561029657fe5b906000526020600020900160405180828054600181600116156101000203166002900480156102fc5780601f106102da5761010080835404028352918201916102fc565b820191906000526020600020905b8154815290600101906020018083116102e8575b5050915050604051809103902060001916836040518082805190602001908083835b602083101515610343578051825260208201915060208101905060208303925061031e565b6001836020036101000a03801982511681845116808217855250505050505090500191505060405180910390206000191614156103835760019150610395565b8080600101915050610274565b600091505b50919050565b6103a48161026c565b15156103af57600080fd5b600180826040518082805190602001908083835b6020831015156103e857805182526020820191506020810190506020830392506103c3565b6001836020036101000a038019825116818451168082178552505050505050905001915050908152602001604051809103902060009054906101000a900460ff16016001826040518082805190602001908083835b602083101515610462578051825260208201915060208101905060208303925061043d565b6001836020036101000a038019825116818451168082178552505050505050905001915050908152602001604051809103902060006101000a81548160ff021916908360ff16021790555050565b60006104bb8261026c565b15156104c657600080fd5b6001826040518082805190602001908083835b6020831015156104fe57805182526020820191506020810190506020830392506104d9565b6001836020036101000a038019825116818451168082178552505050505050905001915050908152602001604051809103902060009054906101000a900460ff169050919050565b60008090505b6000805490508160ff161015610610576000600160008360ff1681548110151561057257fe5b906000526020600020900160405180828054600181600116156101000203166002900480156105d85780601f106105b65761010080835404028352918201916105d8565b820191906000526020600020905b8154815290600101906020018083116105c4575b5050915050908152602001604051809103902060006101000a81548160ff021916908360ff160217905550808060010191505061054c565b50565b81548183558181151161063a5781836000526020600020918201910161063991906106bf565b5b505050565b828054600181600116156101000203166002900490600052602060002090601f016020900481019282601f1061068057805160ff19168380011785556106ae565b828001600101855582156106ae579182015b828111156106ad578251825591602001919060010190610692565b5b5090506106bb91906106eb565b5090565b6106e891905b808211156106e457600081816106db9190610710565b506001016106c5565b5090565b90565b61070d91905b808211156107095760008160009055506001016106f1565b5090565b90565b50805460018160011615610100020316600290046000825580601f106107365750610755565b601f01602090049060005260206000209081019061075491906106eb565b5b505600a165627a7a72305820a0d37896a871ab362eb919b499842e9b9160d4f6bea688c69ac07b6c7bc6b15f0029",
  "source": "pragma solidity ^0.4.18;\r\n\r\ncontract CastYourVote\r\n{\r\n    \r\n    string[] candidateList;\r\n    mapping(string=>uint8) VotesReceived; // 'A' => 3 Votes, 'B' =>5 votes VotesReceived[A] = 3, VotesReceived[B]=5\r\n    \r\n    event log(string comment, string variable);\r\n    function CastYourVote(string candidateName) public\r\n    {\r\n        \r\n        candidateList.push(candidateName);\r\n        log('candidate List ', candidateList[0]);\r\n        \r\n        \r\n    }\r\n    \r\n    function addCandidates(string candidateName) public\r\n    {\r\n        candidateList.push(candidateName);\r\n    }\r\n    \r\n    function VoteFor(string candidateName) public\r\n    {\r\n\t\trequire(isCandidateExist(candidateName));\r\n        VotesReceived[candidateName] = VotesReceived[candidateName]+1;\r\n \r\n        /*for(uint8 i=0; i<candidateList.length;i++)\r\n        {\r\n            if(keccak256(candidateName)==keccak256(candidateList[i]))\r\n            {\r\n                VotesReceived[candidateList[i]] = VotesReceived[candidateList[i]]+1;\r\n            }\r\n        } */\r\n    } \r\n    \r\n    function totalVotesReceived(string candidateName) public view returns (uint8 votes)\r\n    {\r\n\t\trequire(isCandidateExist(candidateName));\r\n        return VotesReceived[candidateName];\r\n    /*  for(uint8 i=0; i<candidateList.length;i++)\r\n        {\r\n            if(keccak256(candidateName)==keccak256(candidateList[i]))\r\n            {\r\n                return VotesReceived[candidateList[i]];\r\n            }\r\n        }  */ \r\n    }\r\n\t\r\n\t\r\n\t\r\n\tfunction resetVotes() public {\r\n\t\r\n\tfor(uint8 i=0; i<candidateList.length;i++)\r\n        {\r\n\t    VotesReceived[candidateList[i]] = 0;\r\n\t}\r\n\t\r\n\t\r\n\t}\r\n\t\r\n\t\r\n    function isCandidateExist(string candidateName) public view returns (bool isexist)\r\n    {\r\n         for(uint8 i=0; i<candidateList.length;i++)\r\n        {\r\n            if(keccak256(candidateName)==keccak256(candidateList[i]))\r\n            {\r\n                return true;\r\n            }\r\n        }\r\n        return false;\r\n    }\r\n    \r\n    \r\n}",
  "sourcePath": "C:\\Users\\preethi\\Desktop\\New folder\\blockchain\\examples\\VotingSample\\contracts\\CastYourVote.sol",
  "compiler": {
    "name": "solc",
    "version": "0.4.18+commit.9cf6e910.Emscripten.clang"
  },
  "schemaVersion": "1.0.1",
  "updatedAt": "2018-02-28T18:15:51.337Z"
}